:020000020000FC
:040000000C94FA0062
:0C0014000C9426000C9426000C94410073
:100048000C9453003091000111D1313008F434E0A0
:10005800353008F031E0309300013A953CD1E4E7BF
:10006800F1E000E1039FE00D68D162D1E4EBF1E03B
:1000780000E1039FE00D61D103C0309100013A9582
:10008800A895549878D531FD05C030FF0C94F10936
:100098000C94F60930FF0C94FB090C94000A1CB16F
:1000A8002F933F93E6E0F1E02091030130910501A1
:1000B8003395303479F0E20F08F4FF5F1083203471
:1000C80020F4203010F0239501C020E02093030194
:1000D800309305013F912F9118959B9B00CE00C549
:1000E80000ACAC00C500CE00E7E700E700C5009B08
:1000F8009B00AC00C500CECE00C5C500ACAC009BD3
:100108009B00C5C500E7E700E7E7E7E700ACAC0000
:10011800AC92707000810092009B9B009B00C50010
:100128009B9B00AC00C500CECE00C5C500ACAC00A2
:100138009B9B00C5C500E7E700E7E7E7E700FFFF8F
:10014800FFFFFFFFFFFFFFFFFFFFFFFFFFFF7F3FF7
:100158001F0F070301000000000000000080C0E03E
:10016800F0F8FCFEFFFFFFFFFFFFFFCC414E494DBB
:100178004154494F4E202020206A6575616E696D93
:100188006174696F6E202020204A4555616E696D43
:100198006174696F6E202020206A6575616E696DD3
:1001A8006174696F6E202020206A657573706563BD
:1001B80074726F20206D6573736167657370656312
:1001C80074726F20206D6573736167655350454382
:1001D80054524F20206D6573736167657370656352
:1001E80074726F20204D4553534147450FEF0DBFA3
:1001F80000E10EBF84D000E709BF0AE000933A008F
:100208000FEF07BB0FEF08BB00E001BB78D027D08A
:1002180002E002B9199A129A579A529806E0009386
:100228000A0031E0309300013A95E4E7F1E000E19B
:10023800039FE00D82D07CD0E4EBF1E000E1039F66
:10024800E00D7BD0A89508E101BD0FE001BD0FE0EE
:10025800202E402E502E57D578940C94F10902B1D7
:100268000F7802B903B1006703B90895E89411B192
:10027800107720900101121509F4089510930101D7
:1002880026FC02C016FD689424FE07C025FC0895CC
:1002980014FD089515FD3395089525FE089514FF5E
:1002A800089515FF3A9508953090008037FCFCCFEB
:1002B80003D000930080089500D0000008952D30E9
:1002C80069F12A30A9F10091008007FDFCCFF4DF25
:1002D800209300C0089501E0E7CF02E0E5CF00E1F8
:1002E800E3CF04E1E1CF08E1DFCF0CE1DDCF0DE0A2
:1002F800DBCF0CE0D9CF0EE0D7CF0CE0D5CF05B7D8
:10030800006C05BF01E0D0DF06E0CEDF0CE0CCDFFB
:1003180008E3CADF0895022F0068C6CF0091008065
:1003280007FDFCCF00740068C7DF009300800895C4
:100338002F9320E4F0DF2F91089540E1C895202DF8
:10034800BEDF31964150D1F70895FF91EF91EE0F3E
:10035800FF1FAF93BF93C8953196002021F04AF054
:10036800002D13D0F8CF3196F695E795BF91AF9150
:10037800099400FA002DC895A02DBB2731960438A2
:1003880079F0053881F015C0E6CF2F93FF93EF93EE
:10039800E42DF52D202F0995EF91FF912F910895C8
:1003A8000C91F3DFD8CF0D91002309F4D4CFEDDF02
:1003B800FACF5F934F933F932F939F938F937F939E
:1003C8006F932D913D914D915D9106FD06C005FD00
:1003D8000FC004FD10C003FD19C06AE0702F7695A8
:1003E8007770729580E0902F9295937093951AC0CC
:1003F80062E094E003C060E194E000C0702F76955D
:10040800777009F478E0729580E00CC06AE0C895CE
:10041800802D3196C895702D3196902F95959370B3
:10042800939500C0943081F0933051F0923021F0D0
:10043800332716F427FD3FEF442716F437FD4FEF17
:10044800552716F447FD5FEF09D06F917F918F9183
:100458009F912F913F914F915F917DCFCF92BF9206
:10046800AF929F928F92BB18AA249924882486F46D
:10047800E89455236AF46894772309F070515095ED
:100488004095309520950FEF201B300B400B500BFB
:10049800882351F05595479537952795B794A79494
:1004A800979487948A95B1F77F9372957F700EE23F
:1004B8000F9345D00C2D30D00F930027201730070D
:1004C8004007500729F07723A1F37A9591F707C0E1
:1004D800772329F07A9519F000E257DFF9CF16F45F
:1004E8000DE253DF0F910E3211F04FDFFBCF7F91FA
:1004F8007F70772359F049DF282D392D4A2D5B2D40
:1005080011D00C2D09D041DF7A95D1F78F909F90AB
:10051800AF90BF90CF9008950A3010F4005D089511
:10052800095A0895CC2400E2889420FDC60EC79489
:1005380057954795379527950A95B1F70895CC248F
:1005480000E2221F331F441F551FCC1CC61A08F493
:10055800C60E0A95B1F7221F331F441F551F509529
:100568004095309520950895762F66275527442382
:1005780071F0842F25D000008A95E1F71A9B02C0FC
:100588001A9801C01A9A641B750B98F7089541E0F0
:100598000AE0302E01E00F933F9200E3302E06E090
:1005A8003A94F1F73A940A95D9F73F900F913A9413
:1005B80091F70A9581F7641B750BE8F7E89408959D
:1005C80000B3081519F4E894000003C00F3F09F0C0
:1005D800222704E0302E01E03A94F1F73A940A9584
:1005E800D9F708952F924F925F92220C28F00FEFBF
:1005F80008BB00E008BB08C00FEF08BB0000000004
:100608000000000000E008BB220C28F00FEF08BB38
:1006180000E008BB08C00FEF08BB000000000000A6
:10062800000000E008BB220C28F00FEF08BB00E038
:1006380008BB08C00FEF08BB000000000000000066
:1006480000E008BB220C28F00FEF08BB00E008BB55
:1006580008C00FEF08BB000000000000000000E029
:1006680008BB220C28F00FEF08BB00E008BB08C04D
:100678000FEF08BB000000000000000000E008BB0E
:10068800220C28F00FEF08BB00E008BB08C00FEFF2
:1006980008BB000000000000000000E008BB220CBE
:1006A80028F00FEF08BB00E008BB08C00FEF08BB3D
:1006B800000000000000000000E008BB220C28F049
:1006C8000FEF08BB00E008BB08C00FEF08BB000035
:1006D80000000000000000E008BB440C28F00FEF09
:1006E80008BB00E008BB08C00FEF08BB0000000013
:1006F8000000000000E008BB440C28F00FEF08BB26
:1007080000E008BB08C00FEF08BB000000000000B5
:10071800000000E008BB440C28F00FEF08BB00E025
:1007280008BB08C00FEF08BB000000000000000075
:1007380000E008BB440C28F00FEF08BB00E008BB42
:1007480008C00FEF08BB000000000000000000E038
:1007580008BB440C28F00FEF08BB00E008BB08C03A
:100768000FEF08BB000000000000000000E008BB1D
:10077800440C28F00FEF08BB00E008BB08C00FEFDF
:1007880008BB000000000000000000E008BB440CAB
:1007980028F00FEF08BB00E008BB08C00FEF08BB4C
:1007A800000000000000000000E008BB440C28F036
:1007B8000FEF08BB00E008BB08C00FEF08BB000044
:1007C80000000000000000E008BB550C28F00FEF07
:1007D80008BB00E008BB08C00FEF08BB0000000022
:1007E8000000000000E008BB550C28F00FEF08BB24
:1007F80000E008BB08C00FEF08BB000000000000C5
:10080800000000E008BB550C28F00FEF08BB00E023
:1008180008BB08C00FEF08BB000000000000000084
:1008280000E008BB550C28F00FEF08BB00E008BB40
:1008380008C00FEF08BB000000000000000000E047
:1008480008BB550C28F00FEF08BB00E008BB08C038
:100858000FEF08BB000000000000000000E008BB2C
:10086800550C28F00FEF08BB00E008BB08C00FEFDD
:1008780008BB000000000000000000E008BB550CA9
:1008880028F00FEF08BB00E008BB08C00FEF08BB5B
:10089800000000000000000000E008BB550C28F034
:1008A8000FEF08BB00E008BB08C00FEF08BB000053
:1008B80000000000000000E008BB5F904F902F9000
:1008C8000895F894082C18E0069410F08BDE0BC0FD
:1008D8002F924F925F9200E0202E402E502E82DE03
:1008E8005F904F902F901A9579F7092C18E006948D
:1008F80010F078DE0BC02F924F925F9200E0202E0E
:10090800402E502E6FDE5F904F902F901A9579F7FA
:100918000A2C18E0069410F065DE0BC02F924F9257
:100928005F9200E0202E402E502E5CDE5F904F90AC
:100938002F901A9579F70B2C18E0069410F052DED8
:100948000BC02F924F925F9200E0202E402E502E27
:1009580049DE5F904F902F901A9579F70C2C18E08C
:10096800069410F03FDE0BC02F924F925F9200E08A
:10097800202E402E502E36DE5F904F902F901A95E5
:1009880079F70D2C18E0069410F02CDE0BC02F928E
:100998004F925F9200E0202E402E502E23DE5F9073
:1009A8004F902F901A9579F70E2C18E0069410F0B6
:1009B80019DE0BC02F924F925F9200E0202E402E3E
:1009C800502E10DE5F904F902F901A9579F70F2CCC
:1009D80018E0069410F006DE0BC02F924F925F923B
:1009E80000E0202E402E502EFDDD5F904F902F907E
:1009F8001A9579F778940895F894082C18E0000C63
:100A0800000C10F4EFDD0BC02F924F925F9200E0C4
:100A1800202E402E502EE6DD5F904F902F901A9595
:100A280079F7092C18E0000C000C10F4DBDD0BC082
:100A38002F924F925F9200E0202E402E502ED2DD52
:100A48005F904F902F901A9579F70A2C18E0000CB8
:100A5800000C10F4C7DD0BC02F924F925F9200E09C
:100A6800202E402E502EBEDD5F904F902F901A956D
:100A780079F70B2C18E0000C000C10F4B3DD0BC058
:100A88002F924F925F9200E0202E402E502EAADD2A
:100A98005F904F902F901A9579F70C2C18E0000C66
:100AA800000C10F49FDD0BC02F924F925F9200E074
:100AB800202E402E502E96DD5F904F902F901A9545
:100AC80079F70D2C18E0000C000C10F48BDD0BC02E
:100AD8002F924F925F9200E0202E402E502E82DD02
:100AE8005F904F902F901A9579F70E2C18E0000C14
:100AF800000C10F477DD0BC02F924F925F9200E04C
:100B0800202E402E502E6EDD5F904F902F901A951C
:100B180079F70F2C18E0000C000C10F463DD0BC003
:100B28002F924F925F9200E0202E402E502E5ADDD9
:100B38005F904F902F901A9579F778940895022D29
:100B48000D5F013008F40CE00D3008F001E0202EB4
:100B5800042D0150013008F40CE00D3008F001E0DC
:100B6800402E052D0250013008F40CE00D3008F03D
:100B780001E0502E0895F89410E42F924F925F925E
:100B880000E0202E402E502E2DDD5F904F902F90AC
:100B98001A9599F704E8302E01E03A94F1F73A945F
:100BA8000A95D9F778940895789404E0202E07E000
:100BB800402E0CE0502EE2EEF0E0C8951FEF00202A
:100BC80049F0002D077011E0002319F0110F0A9564
:100BD800FBCF1095812E3196C8951FEF002049F064
:100BE800002D077011E0002319F0110F0A95FBCFB3
:100BF8001095912E3196C8951FEF002049F0002DD1
:100C0800077011E0002319F0110F0A95FBCF10951A
:100C1800A12E3196C8951FEF002049F0002D0770CE
:100C280011E0002319F0110F0A95FBCF1095B12E92
:100C38003196C8951FEF002049F0002D077011E08C
:100C4800002319F0110F0A95FBCF1095C12E31968C
:100C5800C8951FEF002049F0002D077011E0002310
:100C680019F0110F0A95FBCF1095D12E3196C89522
:100C78001FEF002049F0002D077011E0002319F044
:100C8800110F0A95FBCF1095E12E3196C8951FEFED
:100C9800002049F0002D077011E0002319F0110F12
:100CA8000A95FBCF1095F12E31960BDEE2EEF0E0BF
:100CB800A89545DFEF013796C895FE01002D1FEF77
:100CC8000F3F51F0003041F0077011E0002319F098
:100CD800110F0A95FBCF1095F12EF3DDC895402D25
:100CE80031964395442361F04A95469560E53CDC8E
:100CF800892C9A2CAB2CBC2CCD2CDE2CEF2CD8CFED
:100D08001EDF01D0FDCFEEE4F1E058E0C895F02CED
:100D1800892C9A2CAB2CBC2CCD2CDE2CEF2C3196AC
:100D28005A95A1F7CEDD5CEC04E6302E01E00F9376
:100D38003F9200E3302E06E03A94F1F73A940A9590
:100D4800D9F73F900F913A9491F70A9581F7A895B2
:100D5800C895051659F0F02C3196B3DD892C9A2CDC
:100D6800AB2CBC2CCD2CDE2CEF2CDECF0895789448
:100D780000B30F3F09F4FBCFF894A895FCDE00E11F
:100D8800202E00E0402E502EE2EEF0E0C8951FEF36
:100D9800002049F0002D077011E0002319F0110F11
:100DA8000A95FBCF1095812E3196C8951FEF00202C
:100DB80049F0002D077011E0002319F0110F0A9572
:100DC800FBCF1095912E3196C8951FEF002049F062
:100DD800002D077011E0002319F0110F0A95FBCFC1
:100DE8001095A12E3196C8951FEF002049F0002DCF
:100DF800077011E0002319F0110F0A95FBCF109529
:100E0800B12E3196C8951FEF002049F0002D0770CC
:100E180011E0002319F0110F0A95FBCF1095C12E90
:100E28003196C8951FEF002049F0002D077011E09A
:100E3800002319F0110F0A95FBCF1095D12E31968A
:100E4800C8951FEF002049F0002D077011E000231E
:100E580019F0110F0A95FBCF1095E12E3196C89520
:100E68001FEF002049F0002D077011E0002319F052
:100E7800110F0A95FBCF1095F12E319622DDE2EE87
:100E8800F0E00091020100270093020108EE302EE5
:100E980004E00F933F9200E3302E06E03A94F1F716
:100EA8003A940A95D9F73F900F913A9491F70A9599
:100EB80081F7A89568942FEFEF013796C895FE0142
:100EC800002D1FEF0F3F51F0003041F0077011E087
:100ED800002319F0110F0A95FBCF1095F12EF1DCC4
:100EE800C895402D31964F3F71F0469560EA3CDB3E
:100EF800892C9A2CAB2CBC2CCD2CDE2CEF2C2095DD
:100F080031F42EF0D6CF78941ADEFDDEFCCF022D18
:100F18000450003008F400E1013108F000E0202E10
:100F2800042D0C5F003008F400E1013108F000E006
:100F3800402E0091020103950093020102FFB9CFF0
:100F4800C0DC04E6302E01E00F933F9200E3302E20
:100F580006E03A94F1F73A940A95D9F73F900F9141
:100F68003A9491F70A9581F7A89500B30F3F09F4D1
:100F7800FBCF08EE302E04E00F933F9200E3302EB3
:100F880006E03A94F1F73A940A95D9F73F900F9111
:100F98003A9491F70A9581F7EEDDA895E8CE789412
:100FA80000E0202E03E0402E09E0502E03E309B9AB
:100FB800549A00E000930301009304010093050193
:100FC80088249924AA24BB24CC24DD24EE24FF24DD
:100FD800E894A895909105019923D9F378E0E6E083
:100FE800F1E02091040130910501332381F03A9515
:100FF800E20F08F4FF5F5081203420F4203010F015
:10100800239501C020E0209304013093050150325C
:1010180001F704E3302E06E03A94F1F73A940A9582
:10102800D9F7A895909105019923D9F3E6E0F1E065
:101038002091040130910501332381F03A95E20FA4
:1010480008F4FF5F5081203420F4203010F02395FD
:1010580001C020E020930401309305015053E6E4D9
:10106800F8E0EE0FFF1FE50F08F4FF5F892C9A2CBC
:10107800AB2CBC2CCD2CDE2CEF2CF4907A9589F679
:1010880020DCA7CFFFFEFCF8F0E0C08000007894D9
:101098000FE0202E00E0402E00E0502E03E309B9B7
:1010A800549A00E0009303010093040100930501A2
:1010B80088249924AA24BB24CC24DD24EE24FF24EC
:1010C800A895909105019923D9F308E7302E01E0FE
:1010D8000F933F9200E3302E06E03A94F1F73A94EA
:1010E8000A95D9F73F900F913A9491F70A9581F7AD
:1010F800E6E0F1E02091040130910501332381F00D
:101108003A95E20F08F4FF5F5081203420F4203034
:1011180010F0239501C020E02093040130930501CD
:10112800EBE2F9E0503211F450E01DC0513211F4F5
:1011380052E019C0573211F453E015C0503324F06F
:101148005A3314F45C520FC0513424F05B3514F454
:10115800535309C0513634F05B3724F45156E3EA4F
:10116800F9E001C051E0550F052F550F500FEE0F54
:10117800FF1FE50F08F4FF5F4591A895892C9A2C6D
:10118800AB2CBC2CCD2CDE2CEF2CF59035DC4A9505
:10119800A1F008E7302E01E00F933F9200E3302ED4
:1011A80006E03A94F1F73A940A95D9F73F900F91EF
:1011B8003A9491F70A9581F7E0CFA89508E7302E81
:1011C80001E00F933F9200E3302E06E03A94F1F7E6
:1011D8003A940A95D9F73F900F913A9491F70A9566
:1011E80081F7892C9A2CAB2CBC2CCD2CDE2CEF2C27
:1011F80000E0F02E01DC90910501992309F060CF01
:1012080088E0A89508E7302E01E00F933F9200E3AD
:10121800302E06E03A94F1F73A940A95D9F73F90C0
:101228000F913A9491F70A9581F7892C9A2CAB2C57
:10123800BC2CCD2CDE2CEF2C00E0F02EDDDB9091C9
:101248000501992311F48A95E1F679DC39CF02007A
:1012580000000000040259090600015F00000000B8
:10126800010300000000043E41413E0003427F406C
:10127800000004625149460004224149360004181E
:1012880014127F00042745453900043E49493000BF
:101298000461110907000436494936000406494922
:1012A8003E00047E11117E00047F49493600043E49
:1012B80041412200047F41413E00047F49494100E9
:1012C800047F09090100043E41497A00047F0808A7
:1012D8007F0003417F410000043040413F00047F0C
:1012E80008146300047F40404000057F020C027F21
:1012F800057F0408107F043E41413E00047F090930
:101308000600043E4141BE00047F090976000446F8
:10131800494932000501017F0101043F40403F0077
:10132800050F3040300F053F4038403F0563140833
:101338001463050708700807046151494700042031
:1013480054547800047F4444380004384444280046
:10135800043844447F0004385454180003047E05BC
:1013680000000498A4A47800047F040478000344CF
:101378007D400000044080847D00047F10284400E4
:1013880003417F400000057C047C0478047C04044D
:10139800780004384444380004FC24241800041855
:1013A8002424FC00047C0804040004485454240049
:1013B80003043F440000043C40407C00051C2040DE
:1013C800201C053C403C403C054428102844049C13
:1013D800A0A07C000364544C00000FEF0DBF00E197
:1013E8000EBFE2DB0FEF0DBF00E10EBFC0DC0FEF59
:1013F8000DBF00E10EBFD3DD0FEF0DBF00E10EBF43
:0214080046DEBE
:00000001FF
